:020000041000EA
:10100000500500201D100010000000009D10001071
:101010000018040000010000000000801149124A7D
:10102000124B00F018F8124880471249124A134B2D
:1010300000F011F81249134A134B00F00CF8134951
:10104000134A0020521A02DD043A8850FCDC114891
:101050008047114880479B1A03DD043BC858D05095
:10106000FBDC7047D02D00100C0000205001002048
:10107000A1100010142F001050050020C005002002
:10108000842F0010C0050020C0050020C0050020EE
:10109000CC050020192C0010612B0010FEE7000089
:1010A00080B500AF01F0E0F901F02CFABD4680BD3B
:1010B00080B500AF2A4B1A68FF231B0213401A0A9F
:1010C000284B1A60274B1B68002B37D0244B1B681A
:1010D000FF221A40244B1A60214BDB690322134084
:1010E0001A02214B1B681A431F4B1A601C4BDA690A
:1010F00080239B0013400ED11A4B1B689A021A4B97
:101100001B68D3181948191C00F020FF031C1A0192
:10111000174B1A6021E000F02FF8031C9901114BC6
:101120001B689A02104B1B68D318081C191C00F08E
:101130000DFF031C1A010E4B1A600EE0084BDA6912
:1011400080239B00134003D1094B0A4A1A6004E034
:1011500000F012F8021C064B1A60BD4680BDC04666
:1011600000030140C0050020C405002000001BB79B
:10117000FC3F0020006CDC0280B500AF014B181C66
:10118000BD4680BD002D310190B585B000AFF8603F
:101190007A600B23FB180A1C1A700B23FB181B78B0
:1011A0009B08DBB2181C0B23FB181B789B08DBB2D7
:1011B0001A1CFB6804329200D3580B22BA1812781A
:1011C00003210A40D200111CFC228A40D2431A405B
:1011D000111CFB68021D9200D150FB685B6F0B2253
:1011E000BA1812785200111C03228A40D2431A40C6
:1011F000FB685A670B23FB181B78DB08DBB2181C53
:101200000B23FB181B78DB08DBB21A1CFB681032BF
:101210009200D3580B22BA18127807210A40920084
:10122000111C04228A40D2431A40111CFB68021C84
:1012300010329200D1500B23FB181B78DB08DBB275
:10124000181C0B23FB181B78DB08DBB21A1CFB688D
:1012500010329200D2587B685B781C1C0B23FB1861
:101260001B7807210B409B009C40231C1A43111C38
:10127000FB68021C10329200D150FB68204A934256
:101280000BD1FB681B6E0B22BA181278012191401A
:101290000A1CD2431A40FB681A667B681B78DBB2D3
:1012A0005BB2002B07DA7B685A680B23FB181B78AC
:1012B0009A40FB685A600B23FB181B789B08DBB233
:1012C000181C0B23FB181B789B08DBB21A1CFB684D
:1012D00004329200D2587B681B781C1C0B23FB182D
:1012E0001B7803210B40DB009C40231C1A43111C7C
:1012F000FB68021D9200D150BD4605B090BDC046AE
:101300000002044080B500AF024BC3225A62BD46C2
:1013100080BDC0460000014080B500AF054BC02233
:101320005A62C046034B5B6A04221340FAD1BD46A1
:1013300080BDC0460000014080B586B000AF786037
:10134000FFF7EAFF7B689B79302B53D0FFF714FF40
:10135000021E494B9A4209D9484A48499023CB5A20
:101360009BB240210B4399B29023D152434A434947
:101370009023CB5A9BB29BB2191C322399430B1C6E
:1013800099B27B689B799BB20B439BB299B2902335
:10139000D1523B4B02229A623A4B3A4A52693A493D
:1013A0000A405A61394B7B6100E0C0467B69013BD2
:1013B0007B617B69002BF8D1324B324A5269C021E4
:1013C00089040A435A61C0462E4B5A6980235B0444
:1013D0001340F9D12E4B3B6100E0C0463B69013B15
:1013E0003B613B69002BF8D1254B1B6A022213405D
:1013F000CFD109E0214A21499023CB5A9BB2302119
:101400000B4399B29023D1521C4A7B68DB7999B285
:101410008C23D1527B68DB79002B09D11D4BFB60FB
:1014200000E0C046FB68013BFB60FB68002BF8D185
:10143000144B144AD26918490A40796889880A43CA
:10144000DA61104A0F4B1B68144919407B68DB684E
:1014500019437B689B680B431360FFF753FF7B685E
:101460009B781A1C7B681B88101C191C00F032F832
:10147000BD4606B080BDC046002D310100100140C0
:101480003800014000030140FFFFFFFD1A02000089
:101490007D0A0000A02E6300FFFDFFFFFFFFF0FFAD
:1014A00080B582B000AF7860FFF736FF084B084A7E
:1014B00011697A680A431A61C046054B1A6880238D
:1014C000DB051340F9D1FFF71DFFBD4602B080BD1B
:1014D0000003014080B584B000AF78603960FFF749
:1014E0001BFF274B1A68FF231B0213401B0AFB60DC
:1014F000234B234AD26903218A43111C3A68120AFA
:101500000A43DA611E4B1E4A12681E4911403A68AE
:10151000FF2002400A431C490A431A60C046184B88
:101520001A688023DB051340F9D1FA687B689A4278
:1015300006D8FA687B68101C191C00F053F805E007
:10154000FA687B68101C191C00F022F80C4B0C4A3E
:1015500012680E4911407A6812020A430A490A4386
:101560001A60C046064B1A688023DB051340F9D188
:10157000FFF7C8FEFFF79CFDBD4604B080BDC04626
:101580000003014000FF0FC00000F03FFF000FC04C
:1015900080B582B000AF7860396014E07B689B084A
:1015A0007B600D4B0C4A12680C4911407A6812029C
:1015B0000A430B490A431A60C046074B1A68802346
:1015C000DB051340F9D13B689A007B689A42E5D36A
:1015D000BD4602B080BDC04600030140FF000FC001
:1015E0000000F03F80B582B000AF7860396019E04C
:1015F0007B68002B01D101237B607B689B007B60B3
:101600000C4B0C4A12680C4911407A6812020A43CA
:101610000A490A431A60C046064B1A688023DB0554
:101620001340F9D17B689A003B689A42E0D3BD46EB
:1016300002B080BD00030140FF000FC00000F03F7A
:1016400080B500AF024B1B68181CBD4680BDC0466C
:10165000FC3F002080B582B000AF021CFB1D1A7059
:101660003B1D0A1C1A803B1D3A1D128803210A40AB
:101670001A80FB1D1B780F2B13D8184B174AD26EFC
:10168000F91D09784900081C03218140C9430A401B
:10169000391D0988F81D0078400081400A43DA6648
:1016A00018E0FB1DFA1D12780F210A401A700B4B2F
:1016B0000A4A126FF91D09784900081C032181406C
:1016C000C9430A40391D0988F81D0078400081404F
:1016D0000A431A67BD4602B080BDC0460000014003
:1016E00080B582B000AF78607A68E2235B00D258A0
:1016F000C0239B0013405A425341DBB2181CBD4625
:1017000002B080BD90B583B000AF78600C1C101C97
:10171000191CFB1C221C1A70BB1C021C1A707B1C9F
:101720000A1C1A70FB1C1A78BB1C1B781904FF23B7
:101730001B040B401A437B1C1B781B061A43111C0D
:101740007A68E2235B00D150BD4603B090BDC0462D
:1017500080B582B000AF78607B681B6840221A4376
:101760007B681A60BD4602B080BDC04680B582B0BD
:1017700000AF78607B681B68402293431A1C7B682B
:101780001A60BD4602B080BD80B582B000AF7860FF
:1017900039607A683B68934200D2131C181CBD461E
:1017A00002B080BD80B582B000AF786039607A68E1
:1017B0003B68934200D9131C181CBD4602B080BD83
:1017C00080B588B000AF786039603B681A683B68C4
:1017D0005B68101C191C00F0E1FB0B1E00D096E0AA
:1017E0000023FB610023BB613B681A683B685B68B0
:1017F000101C191C00F0AAFB031CBB6019237B61A1
:1018000000233B610023FB6049E0BB68181C796939
:1018100000F0C4FB0B1E3FD10023BB61B86879699F
:1018200000F094FB031CFB61FB69002B34D0FA69C8
:1018300080239B009A422FD8FB693F2B09D9FB6973
:101840000722134003D07B69013B7B6127E0012322
:10185000BB617B69013B3A6812895343181C2E49CE
:1018600000F074FB031C3B617A693B69D31A013BAE
:10187000FB603B69022B0FD93B690F2B0CD8FB682F
:10188000012B09D9FB68062B06D83B685B891A1E19
:10189000FB689A4200D805E07B69013B7B617B696C
:1018A000072BB2D87B69072B31D97B68181CFFF74F
:1018B0004FFFFB68013B1A03E023DB011A403B6842
:1018C0005B89013B9B01FF210B401A433B69013BB4
:1018D0001902F0231B010B401A43111CBA69131C97
:1018E0005B009B181A1CFB69D340013B3F2213404D
:1018F0000A1C1A43BB69DB031B041B0C1A437B68DD
:101900001A617B68181CFFF731FF002300E00123F8
:10191000181CBD4608B080BD1027000090B583B0EC
:1019200000AF7860081C111CFB1C021C1A70BB1C49
:101930000A1C1A70C0467B68181CFFF7D1FE031CF6
:101940001A1C01235340DBB2002BF4D1FB1C1B7883
:101950000133DCB27A68BB1C1B78101C02211A1CF4
:10196000231CFFF7CFFEBD4603B090BD80B582B00B
:1019700000AF786080239B03181CFFF791FD7B6804
:101980001B68012293431A1C7B681A60C0467B685F
:101990001B6802221340FAD1BD4602B080BDC0468A
:1019A00080B582B000AF78600A1CFB1C1A707A68A0
:1019B000E4235B00D3580F2293431A1CFB1C1B78B3
:1019C0001A43111C7A68E4235B00D150BD4602B073
:1019D00080BDC04680B582B000AF78607A68E423ED
:1019E0005B00D358DBB20F221340DBB2181CBD469C
:1019F00002B080BD80B584B000AF78600023FB608A
:101A00007B68181CFFF7E6FF031E012B02D0022B98
:101A100005D009E0FFF714FE031CFB6004E0FFF7AC
:101A2000ABFB031CFB60C046FB68181CBD4604B042
:101A300080BDC04680B588B000AFF8607A600B23E7
:101A4000FB180A1C1A70FB68181CFFF78FFFFA6856
:101A50000B23FB181B78101C191CFFF7A1FFFB6858
:101A6000181CFFF7C7FF031CFB61F869796800F0D9
:101A70006DFA031C1A1C8023DB009B1A0020191C22
:101A8000FFF782FE021C124B101C191CFFF78AFE86
:101A9000031CBB61BB698022D200D31AF869191CF0
:101AA00000F054FA031C7B61FB68DB68094A1A40AA
:101AB000FB68DA60FB68DA68BB6913438022D201F5
:101AC0001A43FB68DA607B69181CBD4608B080BD0C
:101AD000FF030000003CFFFF80B586B000AF7860D8
:101AE0007B681B68484A944663445B097B617B6959
:101AF0005B095A037B691F210B401B0213433B61A7
:101B00007B681B687A681268926840490A409A604C
:101B10007B681B687A68126891683A690A439A6020
:101B20007B68DB7920221340DBB2002B07D07B6877
:101B3000DB7920221340DBB2002B00D161E07B680F
:101B40001B7E002B04D07B681B7E012B00D058E04D
:101B50007B681B682022DA617B68DB7920221340D6
:101B6000DBB2002B28D17B685B68FB60FB685B0FF6
:101B70005B07FB607B685B68DB00DB089B041A1C6F
:101B8000FB681343FB607B681B68FA689A617B689B
:101B90009B68FB60FB685B0F5B07FB607B689B6877
:101BA000DB00DB089B041A1CFB681343FB607B68AB
:101BB0001B68FA68DA6009E07B681B687A6852681B
:101BC0009A617B681B687A689268DA607B681B7E22
:101BD000012B0DD17B68181C00F01EF87B681B6878
:101BE00080221205DA617B681B68094ADA6108E025
:101BF0007B681B6880221201DA617B681B68054ADA
:101C0000DA61BD4606B080BD00F0FBAFFF00FFFF0C
:101C1000C00020064006A00080B584B000AF786008
:101C20000F23FB1803221A707B681B7E012B25D122
:101C30007B681B682022DA617B681B687A681268FF
:101C40001268144911407A68127B1006F0221205BE
:101C500002400A431A607B681B687A6812691A613D
:101C60007B681B687A6852695A617B681B680A4AFC
:101C7000DA610F23FB1800221A7003E00F23FB1810
:101C800003221A700F23FB181B78181CBD4604B0E2
:101C900080BDC046FFFFFFF04000280080B586B041
:101CA00000AF78601723FB1801221A707B681B684D
:101CB000DB69202213405B093B617B681B68DA69A2
:101CC00080235B0013401B0AFB603B69002B04D19F
:101CD0001723FB1804221A7010E0FB68012B04D1B3
:101CE0001723FB1802221A7008E07B681B68E022A9
:101CF000D204DA611723FB1800221A701723FB188D
:101D00001B78181CBD4606B080BDC04680B582B0A9
:101D100000AF786039603A688023DB039A4206D0CE
:101D20007B681A683B681A437B681A6005E07B6829
:101D30009A693B681A437B689A61BD4602B080BDD0
:101D400080B582B000AF78607B6880225200DA6094
:101D5000BD4602B080BDC04680B582B000AF78609D
:101D60007B68094A934203D10420FFF799FB08E0FE
:101D70007B68064A934204D180239B02181CFFF71C
:101D80008FFBBD4602B080BD0000044800400448FF
:101D900080B582B000AF78607B68181CFFF7DCFF6D
:101DA000BD4602B080BDC04680B584B000AF78604B
:101DB0000A1CFB1C1A707B68181CFFF7E9FF7B6884
:101DC000181CFFF7BDFF7B681B68FB60FB68074AB8
:101DD0001340FB60FB1C1B789B03FA681343FB60FA
:101DE0007B68FA681A60BD4604B080BDFF3FFFFF04
:101DF00080B582B000AF786039603B681A687B6854
:101E00005A613B685B799B06DB0FDBB21A057B6886
:101E10005A603B681B791B071B0FDBB21A1C7B68DF
:101E20005A623B685B791B071B0FDBB21A1C7B688D
:101E30001A623B685B79DB06DB0FDBB21A1C7B683E
:101E40009A613B681B791B061B0FDBB21A1C7B686F
:101E5000DA62BD4602B080BD80B586B000AF786062
:101E6000081C111CFB1C021C1A70BB1C0A1C1A70DB
:101E7000FB1C1B780B2B20D89A00204BD3181B6817
:101E80009F4603233B6100237B611BE00C233B61E6
:101E900002237B6116E0C0239B003B6108237B612A
:101EA00010E0C0231B013B610A237B610AE0C023D1
:101EB0009B013B610C237B6104E000233B61002319
:101EC0007B61C0463B69002B14D07B68A8229B58DD
:101ED000FB603B69DA43FB681340FB60BB1C1A786C
:101EE0007B699A40131CFA681343FB607B68A82146
:101EF000FA685A50BD4606B080BDC046642C00103A
:101F000080B582B000AF7860081C111CFB1C021C5D
:101F10001A70BB1C0A1C1A707B685B6FFA1C127863
:101F20005200111C03228A40D2431A407B685A6730
:101F30007B685A6FBB1C1B78F91C097849008B40E1
:101F40001A437B685A67BD4602B080BD80B588B031
:101F500000AF78603960EFF310837B617B693B6190
:101F600072B63B69FB610C4B04225A630A4B7A68D8
:101F70001A62094B3A685A62074B9B6ABB61FB695C
:101F8000FB60FB68BB60BB6883F31088BB69181CEF
:101F9000BD4608B080BDC04600000340F0B58DB01E
:101FA00000AF78603960EFF310827A617A693A6144
:101FB00072B63A69FA62154A04215163134A796884
:101FC0001162124A39685162104AD26A3A6200229A
:101FD0007A620E4A926ABA610022FA61FA6AFA607B
:101FE000FA68BA60BA6882F310883A6A140000226C
:101FF000131CBA691A43151CFA692243161C2B1CC0
:10200000341C181C211CBD460DB0F0BD000003405F
:1020100080B500AFBD4680BD80B582B000AF7860AE
:102020000A1CFB1C1A70FB1C1B7801229A407B685F
:10203000DA60BD4602B080BD80B582B000AF786086
:102040007B680122DA60BD4602B080BD80B582B0F7
:1020500000AF78607B6802221A61BD4602B080BD85
:1020600080B582B000AF78600A1CBB1C1A80BB1C14
:102070001A887B685A63BD4602B080BD80B582B0C5
:1020800000AF78600A1CBB1C1A80BB1C1A887B68D6
:10209000DA63BD4602B080BD80B582B000AF786023
:1020A00039607B683A681A61BD4602B080BDC0469F
:1020B00080B582B000AF78600A1CFB1C1A707B6888
:1020C000A4229A58FB1C1B78012199400B1C1A432F
:1020D0007B68A4215A50BD4602B080BD90B585B042
:1020E00000AF78600F23FB1800221A707B6826224D
:1020F0009B5C01225340DBB2002B0CD07B68212279
:102100009B5C002B07D10F23FC187B68181C00F088
:1021100009F8031C23700F23FB181B78181CBD46FD
:1021200005B090BD90B585B000AF78607B681B6945
:102130000F22BC18181C00F02FF9031C23707B68B9
:102140001B699A687B681B7E101C191CFFF764FFD3
:102150007B685A697B68DB69101C191CFFF748FE15
:102160007B68181C00F030F87B6825229B5C002BF4
:102170000FD07B6859697B6820229B5C081C00217A
:102180001A1CFFF769FE7B685B69181C0021FFF7CA
:102190008FFF7B685B69181CFFF758FF7B6826225E
:1021A000012199547B6824229B5C002B04D07B681E
:1021B0005B69181CFFF740FF0F23FB181B78181CE6
:1021C000BD4605B090BDC04680B582B000AF786016
:1021D0007B685A697B685B8C101C191CFFF740FFF9
:1021E0007B685B69181C0021FFF748FF7B681B694F
:1021F0009A687B68DB68101C191CFFF74DFFBD4611
:1022000002B080BD80B582B000AF021CFB1D1A7009
:10221000FB1D1B787F2B09D8064BFA1D1278111C69
:102220001F220A40012191400A1C1A60BD4602B0DB
:1022300080BDC04600E100E0B0B582B000AF021C36
:102240003960FB1D1A70FB1D1B787F2B27D82D4C86
:10225000FB1D1B785BB29B082A49FA1D127852B20B
:102260009208C03292005258F91D0978081C0321C7
:102270000140C900081CFF218140C94311403A6850
:102280009201FF200240F81D0078051C0320284021
:10229000C00082400A43C0339B001A512EE01A4C02
:1022A000FB1D1B781A1C0F231340083B9908164A84
:1022B000FB1D1B78181C0F230340083B9B080633AB
:1022C0009B00D3185B68FA1D1278101C0322024091
:1022D000D200101CFF228240D2431A403B689B016F
:1022E000FF200340F81D0078051C03202840C00093
:1022F00083401A438B1D9B00E3185A60BD4602B011
:10230000B0BDC04600E100E000ED00E080B582B065
:1023100000AF78607B689B785BB2181CFFF772FF98
:10232000BD4602B080BDC04680B582B000AF7860C7
:102330007B689A787B68DB78191C53B2181CFFF70E
:102340007BFF7B689B78DAB27B689B785BB21B0271
:1023500099B27B681B889BB20B439BB29BB2101C4B
:10236000191CFFF777F97B681B79002B03D07B687A
:10237000181CFFF7CBFF0023181CBD4602B080BD20
:1023800080B582B000AF78607B6880225200DA604E
:10239000BD4602B080BDC04680B582B000AF786057
:1023A0007B685B7B01225340DBB2002B0FD07B6844
:1023B0009A687B681B7B101C191CFFF7F5FC7B6877
:1023C0009B68181CFFF7DCFF7B6801225A7300230F
:1023D000181CBD4602B080BD80B584B000AF7860E7
:1023E0000F23FB1800221A707B685B7A012253408E
:1023F000DBB2002B11D07B6859687B681A7A7B6846
:102400001B68081C111C1A1CFFF714FB7B680122B7
:102410005A720F23FB1800221A700F23FB181B7827
:10242000181CBD4604B080BD80B582B000AF786096
:102430007B6819687B681A7B7B680433081C111C55
:102440001A1CFEF7A1FE7B6819687B681A7B7B6803
:102450005B7B081C111C1A1CFFF752FD0023181C83
:10246000BD4602B080BDC04680B500AF034B034AF5
:10247000926E01218A439A66BD4680BD00000140EC
:1024800080B584B000AF78600F23FB1800221A706B
:102490000E23FB1800221A700D23FB1800221A705D
:1024A0000C23FB1800221A700B23FB1800221A7051
:1024B0007B681B7801225340DBB2002B1BD00E231C
:1024C000FA180D23FB1812781B781343DAB20C2389
:1024D000FB181B781343D9B20F23FB180B22BA1831
:1024E00012780A431A700F23FB181B78002B02D1B5
:1024F0007B6801221A700F23FB181B78181CBD463D
:1025000004B080BD90B585B000AF3B1C054A13CA2E
:1025100013C312681A603B1C181CFEF70DFFBD4662
:1025200005B090BDDC2C001080B584B000AFF86021
:102530007A600B23FB180A1C1A70FB689B680B223D
:10254000BA181278072191400A1CD2431A400B2373
:10255000FB181B78796899400B1C1A43FB689A603A
:10256000BD4604B080BDC04680B582B000AF786083
:102570000A1CFB1C1A707B68DB68072293431A1C39
:10258000FB1C1B7807210B401A437B68DA60BD46B1
:1025900002B080BD80B582B000AF78607B68DB6838
:1025A000802252001A437B68DA60BD4602B080BDCB
:1025B00080B582B000AF78607B681B6840221A4308
:1025C0007B681A60BD4602B080BDC04680B582B04F
:1025D00000AF78607B681B68402293431A1C7B68BD
:1025E0001A60BD4602B080BD80B582B000AF786091
:1025F0007B681B6801221A437B681A60BD4602B0E3
:1026000080BDC04680B582B000AF78607B681B6833
:10261000012293431A1C7B681A60BD4602B080BD3C
:1026200080B582B000AF78607B681B6880229343DE
:102630001A1C7B681A60BD4602B080BD80B584B0AC
:1026400000AFF8607A600B23FB180A1C1A70FB6855
:102650001B68FA68126892680B21791809780720BC
:102660008840011CC94311400B22BA1812787868BF
:102670009040021C0A439A60BD4604B080BDC0462B
:1026800080B582B000AF786039607B681B687A687B
:10269000126811683A680A431A60BD4602B080BDEC
:1026A00080B582B000AF78607B681A6880239B0297
:1026B000101C191CFFF7E4FFBD4602B080BDC046E8
:1026C00080B582B000AF78607B681A6880235B02B7
:1026D000101C191CFFF7D4FFBD4602B080BDC046D8
:1026E00080B584B000AF78600023FB607B68181C65
:1026F00000F032F87B68A4229B5C002B03D0FB68BF
:1027000002221343FB607B68A3229B5C002B03D057
:10271000FB6804221343FB607B68A5229B5C002BB3
:1027200003D0FB6808221343FB607B685A68FB6890
:10273000101C191CFFF7EAFA7B68A6229B5C002B91
:1027400007D07B685A688023DB03101C191CFFF735
:10275000DDFABD4604B080BD80B582B000AF7860C0
:102760007B6859687B688C229B581B78081C002169
:102770001A1CFFF7D9FE7B6859687B688C229B582E
:102780005B78081C04211A1CFFF7CEFE7B68596891
:102790007B688C229B589B78081C08211A1CFFF729
:1027A000C3FE7B6859687B688C229B58DB78081CC9
:1027B0000C211A1CFFF7B8FEBD4602B080BDC04612
:1027C00080B582B000AF78607B681B68181CFFF78B
:1027D00083F97B68DB79002B0CD07B681A687B68F7
:1027E0005B79101C04211A1CFFF728FF7B68181C5A
:1027F000FFF756FF7B681B7A002B0CD07B681A68AA
:102800007B689B79101C00211A1CFFF717FF7B685F
:10281000181CFFF755FFBD4602B080BD90B585B0CE
:1028200000AF78600F23FB1800221A707B681B68CA
:102830000F22BC18181CFFF731FA031C23700F235A
:10284000FB181B78181CBD4605B090BD90B585B02F
:1028500000AF786039600F23FB1800221A703B68C4
:10286000BB607B681B68BA6812681A617B681B686A
:10287000BA6852685A617B681B680F22BC18181C22
:10288000FFF7CAF9031C23700F23FB181B78181CD1
:10289000BD4605B090BDC04690B587B000AF78602A
:1028A0001723FB1800221A707B6890229B58FB604C
:1028B0007B681B681722BC18181CFFF78DFD031CD2
:1028C00023701723FB181B78002B00D085E07B6852
:1028D0005A687B689B68101C191CFEF771FF031E69
:1028E00076D17B685B68181CFFF762FE7B685B68CB
:1028F000181CFFF779FE7B685B68181CFFF790FED9
:102900007B68A7229B5C002B05D07B685B68181C4A
:10291000FFF740FE16E07B6898229B5818687B689A
:1029200098229B5819797B689C229B581A1CFEF7A9
:102930002BFC7B6859687B68A0229B5C081C191CD7
:10294000FFF712FE7B68181CFFF7CAFE00233B61ED
:102950001AE07A683B6902339B00D3185B68BB605E
:102960007B681B6859687B68A1229A5CBB681B79ED
:10297000081C111C1A1CFEF7D1FFBB68181CFFF7BE
:102980001FFF3B6901333B617B68A2229B5C1A1EDF
:102990003B699A42DDD87B685B68181CFFF716FE1E
:1029A0007B685B68181CFFF72DFE7B68A7229B5C89
:1029B00001225340DBB2002B13D0FB681868FB6880
:1029C00019797B6894229B581A1CFEF7DDFB08E0FE
:1029D0001723FB1801221A7003E01723FB180122AA
:1029E0001A701723FB181B78181CBD4607B090BD42
:1029F00090B583B000AFFB1D00221A70FC1D2C4B5C
:102A0000181CFFF73DFD031C2370FB1D1B78002BDA
:102A100006D1FC1D274B181CFFF73EFF031C23703B
:102A2000FB1D1B78002B06D1FC1D234B181CFFF748
:102A3000FBFC031C2370FB1D1B78002B06D1FC1D27
:102A40001E4B181CFFF7F0FC031C2370FB1D1B78AA
:102A5000002B06D1FC1D1A4B181CFFF7E5FC031CCC
:102A60002370FB1D1B78002B06D1FC1D154B181C79
:102A7000FFF7DAFC031C2370FB1D1B78002B06D12B
:102A8000FC1D114B181CFFF74FFC031C2370FB1D92
:102A90001B78002B06D1FC1D0C4B181CFFF71EFBEE
:102AA000031C2370FB1D1B78181CBD4603B090BD92
:102AB000C8050020282D00109C2C0010AC2C001004
:102AC000BC2C0010CC2C0010942C001058050020B9
:102AD00080B582B000AF78600A1CFB1C1A70FB1C2A
:102AE0001B78034A9A407B685A60BD4602B080BD9D
:102AF0000100010080B582B000AF78600A1CFB1CA9
:102B00001A707B685A6AFB1C1B78DA40131C01227E
:102B10001340181CBD4602B080BDC04680B582B0CF
:102B200000AF78607B681A687B681B7B101C191CDF
:102B3000FFF7CEFFBD4602B080BDC04680B582B073
:102B400000AF78607B681A687B681B7B101C191CBF
:102B5000FFF7D0FF031C181CBD4602B080BDC04665
:102B600090B583B000AFFC1DFFF742FF031C23703C
:102B7000FB1D1B78002B00D0FEE7FEE780B582B07E
:102B800000AF204B7B603B1C00221A701E4B181CB0
:102B9000FFF7D4FF031E012B13D11C4B181CFFF7AA
:102BA000BDFF3B1C01225A707B68DA683B1C101C7D
:102BB000191CFFF74BFE7B68DB68181CFFF72EFE25
:102BC0001DE0134B181CFFF7B9FF031E012B13D197
:102BD000104B181CFFF7A2FF3B1C02225A707B68A7
:102BE000DA683B1C101C191CFFF730FE7B68DB68A1
:102BF000181CFFF713FE02E03B1C00225A70BD4672
:102C000002B080BD282D00109C2C0010BC2C0010A0
:102C1000AC2C0010CC2C00100E4B70B500251E1CE7
:102C20000D4CE41AA410A54204D0AB00F358984709
:102C30000135F8E7FFF7ECF9084B00251E1C084C9E
:102C4000E41AA410A54204D0AB00F358984701350C
:102C5000F8E770BDC0050020C0050020C0050020B9
:102C6000C0050020821E0010821E00108C1E001065
:102C70008C1E0010BA1E0010BA1E0010BA1E0010E2
:102C8000BA1E0010961E0010A21E0010AE1E0010EC
:102C9000AE1E00100200000301000000000204400C
:102CA00018000000000000000000000000020440C6
:102CB00018000000000000000100000000040440B3
:102CC000800000000000010000000000000404403B
:102CD0008000000000000100010000000000010071
:102CE0000000300300000100000000000004044068
:102CF00009000000A40000000100000000040440DE
:102D0000080000000000000000000000006CDC0271
:102D100020A10700401F010000000000A0050020C6
:102D20001300000000000000900500200003045084
:102D30000C2D00101C2D00100000000000000000F1
:102D40000000000000000000000000000000000083
:102D50000000000000000000000000000000000073
:102D60000000000000000000000000000000000063
:102D70000000000000000000000000000000000053
:102D80000000000000000000000000000000000043
:102D90000000000000000000000000000000000033
:102DA0000000000000000000000000000000000023
:102DB00000000000182D0010EC2C0010F42C001066
:102DC000FC2C0010042D0010020101000000000086
:102DD0002C48004700000000000000000000000038
:102DE00000000000000000000000000000000000E3
:102DF000254800470000000000000000234800476D
:102E000023480047234800472348004723480047FA
:102E100023480047234800472348004723480047EA
:102E200023480047234800472348004723480047DA
:102E300023480047234800472348004723480047CA
:102E400023480047234800472348004723480047BA
:102E500023480047234800472348004723480047AA
:102E6000234800472348004723480047234800479A
:102E7000234800472348004723480047234800478A
:102E8000234800479D1000109D1000109D10001059
:102E90009D1000107D2B00109D1000109D10001043
:102EA0009D1000109D1000109D1000109D1000102E
:102EB0009D1000109D1000109D1000109D1000101E
:102EC0009D1000109D1000109D1000109D1000100E
:102ED0009D1000109D1000109D1000109D100010FE
:102EE0009D1000109D1000109D1000109D100010EE
:102EF0009D1000109D1000109D1000109D100010DE
:102F00009D1000109D1000109D1000109D100010CD
:042F10009D10001000
:102F14000000000007000000404B4C0000D0548526
:102F24000A00000050000000800500200002044850
:102F3400010000005005002000007B920101000008
:102F440000D8B8050100000000000448000000009B
:102F5400006CDC02000004500100000000000000CE
:102F640060120450FF070080FF07002002000000E9
:102F7400000000000000000001000000000000004C
:040000051000101DBA
:00000001FF
